{
  "contractName": "MyNFT",
  "abi": [
    {
      "inputs": [],
      "stateMutability": "nonpayable",
      "type": "constructor"
    },
    {
      "anonymous": false,
      "inputs": [
        {
          "indexed": true,
          "internalType": "address",
          "name": "owner",
          "type": "address"
        },
        {
          "indexed": true,
          "internalType": "address",
          "name": "approved",
          "type": "address"
        },
        {
          "indexed": true,
          "internalType": "uint256",
          "name": "tokenId",
          "type": "uint256"
        }
      ],
      "name": "Approval",
      "type": "event"
    },
    {
      "anonymous": false,
      "inputs": [
        {
          "indexed": true,
          "internalType": "address",
          "name": "owner",
          "type": "address"
        },
        {
          "indexed": true,
          "internalType": "address",
          "name": "operator",
          "type": "address"
        },
        {
          "indexed": false,
          "internalType": "bool",
          "name": "approved",
          "type": "bool"
        }
      ],
      "name": "ApprovalForAll",
      "type": "event"
    },
    {
      "anonymous": false,
      "inputs": [
        {
          "indexed": true,
          "internalType": "address",
          "name": "previousOwner",
          "type": "address"
        },
        {
          "indexed": true,
          "internalType": "address",
          "name": "newOwner",
          "type": "address"
        }
      ],
      "name": "OwnershipTransferred",
      "type": "event"
    },
    {
      "anonymous": false,
      "inputs": [
        {
          "indexed": true,
          "internalType": "address",
          "name": "from",
          "type": "address"
        },
        {
          "indexed": true,
          "internalType": "address",
          "name": "to",
          "type": "address"
        },
        {
          "indexed": true,
          "internalType": "uint256",
          "name": "tokenId",
          "type": "uint256"
        }
      ],
      "name": "Transfer",
      "type": "event"
    },
    {
      "inputs": [
        {
          "internalType": "address",
          "name": "to",
          "type": "address"
        },
        {
          "internalType": "uint256",
          "name": "tokenId",
          "type": "uint256"
        }
      ],
      "name": "approve",
      "outputs": [],
      "stateMutability": "nonpayable",
      "type": "function"
    },
    {
      "inputs": [
        {
          "internalType": "address",
          "name": "owner",
          "type": "address"
        }
      ],
      "name": "balanceOf",
      "outputs": [
        {
          "internalType": "uint256",
          "name": "",
          "type": "uint256"
        }
      ],
      "stateMutability": "view",
      "type": "function",
      "constant": true
    },
    {
      "inputs": [
        {
          "internalType": "uint256",
          "name": "tokenId",
          "type": "uint256"
        }
      ],
      "name": "getApproved",
      "outputs": [
        {
          "internalType": "address",
          "name": "",
          "type": "address"
        }
      ],
      "stateMutability": "view",
      "type": "function",
      "constant": true
    },
    {
      "inputs": [
        {
          "internalType": "address",
          "name": "owner",
          "type": "address"
        },
        {
          "internalType": "address",
          "name": "operator",
          "type": "address"
        }
      ],
      "name": "isApprovedForAll",
      "outputs": [
        {
          "internalType": "bool",
          "name": "",
          "type": "bool"
        }
      ],
      "stateMutability": "view",
      "type": "function",
      "constant": true
    },
    {
      "inputs": [],
      "name": "name",
      "outputs": [
        {
          "internalType": "string",
          "name": "",
          "type": "string"
        }
      ],
      "stateMutability": "view",
      "type": "function",
      "constant": true
    },
    {
      "inputs": [],
      "name": "owner",
      "outputs": [
        {
          "internalType": "address",
          "name": "",
          "type": "address"
        }
      ],
      "stateMutability": "view",
      "type": "function",
      "constant": true
    },
    {
      "inputs": [
        {
          "internalType": "uint256",
          "name": "tokenId",
          "type": "uint256"
        }
      ],
      "name": "ownerOf",
      "outputs": [
        {
          "internalType": "address",
          "name": "",
          "type": "address"
        }
      ],
      "stateMutability": "view",
      "type": "function",
      "constant": true
    },
    {
      "inputs": [],
      "name": "renounceOwnership",
      "outputs": [],
      "stateMutability": "nonpayable",
      "type": "function"
    },
    {
      "inputs": [
        {
          "internalType": "address",
          "name": "from",
          "type": "address"
        },
        {
          "internalType": "address",
          "name": "to",
          "type": "address"
        },
        {
          "internalType": "uint256",
          "name": "tokenId",
          "type": "uint256"
        }
      ],
      "name": "safeTransferFrom",
      "outputs": [],
      "stateMutability": "nonpayable",
      "type": "function"
    },
    {
      "inputs": [
        {
          "internalType": "address",
          "name": "from",
          "type": "address"
        },
        {
          "internalType": "address",
          "name": "to",
          "type": "address"
        },
        {
          "internalType": "uint256",
          "name": "tokenId",
          "type": "uint256"
        },
        {
          "internalType": "bytes",
          "name": "data",
          "type": "bytes"
        }
      ],
      "name": "safeTransferFrom",
      "outputs": [],
      "stateMutability": "nonpayable",
      "type": "function"
    },
    {
      "inputs": [
        {
          "internalType": "address",
          "name": "operator",
          "type": "address"
        },
        {
          "internalType": "bool",
          "name": "approved",
          "type": "bool"
        }
      ],
      "name": "setApprovalForAll",
      "outputs": [],
      "stateMutability": "nonpayable",
      "type": "function"
    },
    {
      "inputs": [
        {
          "internalType": "bytes4",
          "name": "interfaceId",
          "type": "bytes4"
        }
      ],
      "name": "supportsInterface",
      "outputs": [
        {
          "internalType": "bool",
          "name": "",
          "type": "bool"
        }
      ],
      "stateMutability": "view",
      "type": "function",
      "constant": true
    },
    {
      "inputs": [],
      "name": "symbol",
      "outputs": [
        {
          "internalType": "string",
          "name": "",
          "type": "string"
        }
      ],
      "stateMutability": "view",
      "type": "function",
      "constant": true
    },
    {
      "inputs": [
        {
          "internalType": "uint256",
          "name": "tokenId",
          "type": "uint256"
        }
      ],
      "name": "tokenURI",
      "outputs": [
        {
          "internalType": "string",
          "name": "",
          "type": "string"
        }
      ],
      "stateMutability": "view",
      "type": "function",
      "constant": true
    },
    {
      "inputs": [
        {
          "internalType": "address",
          "name": "from",
          "type": "address"
        },
        {
          "internalType": "address",
          "name": "to",
          "type": "address"
        },
        {
          "internalType": "uint256",
          "name": "tokenId",
          "type": "uint256"
        }
      ],
      "name": "transferFrom",
      "outputs": [],
      "stateMutability": "nonpayable",
      "type": "function"
    },
    {
      "inputs": [
        {
          "internalType": "address",
          "name": "newOwner",
          "type": "address"
        }
      ],
      "name": "transferOwnership",
      "outputs": [],
      "stateMutability": "nonpayable",
      "type": "function"
    },
    {
      "inputs": [
        {
          "internalType": "address",
          "name": "",
          "type": "address"
        }
      ],
      "name": "wills",
      "outputs": [
        {
          "internalType": "string",
          "name": "text",
          "type": "string"
        },
        {
          "internalType": "uint256",
          "name": "propertyID",
          "type": "uint256"
        }
      ],
      "stateMutability": "view",
      "type": "function",
      "constant": true
    },
    {
      "inputs": [
        {
          "internalType": "address",
          "name": "recipient",
          "type": "address"
        },
        {
          "internalType": "string",
          "name": "tokenURI",
          "type": "string"
        }
      ],
      "name": "mintNFT",
      "outputs": [
        {
          "internalType": "uint256",
          "name": "",
          "type": "uint256"
        }
      ],
      "stateMutability": "nonpayable",
      "type": "function"
    },
    {
      "inputs": [
        {
          "internalType": "address",
          "name": "creater",
          "type": "address"
        },
        {
          "internalType": "uint256",
          "name": "id",
          "type": "uint256"
        },
        {
          "internalType": "string",
          "name": "text",
          "type": "string"
        }
      ],
      "name": "createWill",
      "outputs": [],
      "stateMutability": "nonpayable",
      "type": "function"
    },
    {
      "inputs": [
        {
          "internalType": "address",
          "name": "creater",
          "type": "address"
        }
      ],
      "name": "viewWill",
      "outputs": [
        {
          "internalType": "uint256",
          "name": "",
          "type": "uint256"
        },
        {
          "internalType": "string",
          "name": "",
          "type": "string"
        }
      ],
      "stateMutability": "view",
      "type": "function",
      "constant": true
    }
  ],
  "bytecode": "0x60806040523480156200001157600080fd5b506040518060400160405280600a81526020017f4c616e64204465656473000000000000000000000000000000000000000000008152506040518060400160405280600481526020017f4c4448470000000000000000000000000000000000000000000000000000000081525081600090816200008f919062000365565b508060019081620000a1919062000365565b50505033600760006101000a81548173ffffffffffffffffffffffffffffffffffffffff021916908373ffffffffffffffffffffffffffffffffffffffff1602179055506200044c565b600081519050919050565b7f4e487b7100000000000000000000000000000000000000000000000000000000600052604160045260246000fd5b7f4e487b7100000000000000000000000000000000000000000000000000000000600052602260045260246000fd5b600060028204905060018216806200016d57607f821691505b60208210810362000183576200018262000125565b5b50919050565b60008190508160005260206000209050919050565b60006020601f8301049050919050565b600082821b905092915050565b600060088302620001ed7fffffffffffffffffffffffffffffffffffffffffffffffffffffffffffffffff82620001ae565b620001f98683620001ae565b95508019841693508086168417925050509392505050565b6000819050919050565b6000819050919050565b600062000246620002406200023a8462000211565b6200021b565b62000211565b9050919050565b6000819050919050565b620002628362000225565b6200027a62000271826200024d565b848454620001bb565b825550505050565b600090565b6200029162000282565b6200029e81848462000257565b505050565b5b81811015620002c657620002ba60008262000287565b600181019050620002a4565b5050565b601f8211156200031557620002df8162000189565b620002ea846200019e565b81016020851015620002fa578190505b6200031262000309856200019e565b830182620002a3565b50505b505050565b600082821c905092915050565b60006200033a600019846008026200031a565b1980831691505092915050565b600062000355838362000327565b9150826002028217905092915050565b6200037082620000eb565b67ffffffffffffffff8111156200038c576200038b620000f6565b5b62000398825462000154565b620003a5828285620002ca565b600060209050601f831160018114620003dd5760008415620003c8578287015190505b620003d4858262000347565b86555062000444565b601f198416620003ed8662000189565b60005b828110156200041757848901518255600182019150602085019450602081019050620003f0565b8683101562000437578489015162000433601f89168262000327565b8355505b6001600288020188555050505b505050505050565b613173806200045c6000396000f3fe608060405234801561001057600080fd5b506004361061012c5760003560e01c80638da5cb5b116100ad578063c360d57d11610071578063c360d57d1461032e578063c87b56dd1461035f578063e985e9c51461038f578063eacabe14146103bf578063f2fde38b146103ef5761012c565b80638da5cb5b1461028957806395d89b41146102a7578063a22cb465146102c5578063a4cb92fa146102e1578063b88d4fde146103125761012c565b806323b872dd116100f457806323b872dd146101e757806342842e0e146102035780636352211e1461021f57806370a082311461024f578063715018a61461027f5761012c565b806301ffc9a71461013157806306fdde0314610161578063081812fc1461017f57806308eb7c9c146101af578063095ea7b3146101cb575b600080fd5b61014b60048036038101906101469190611d25565b61040b565b6040516101589190611d6d565b60405180910390f35b6101696104ed565b6040516101769190611e18565b60405180910390f35b61019960048036038101906101949190611e70565b61057f565b6040516101a69190611ede565b60405180910390f35b6101c960048036038101906101c4919061205a565b6105c5565b005b6101e560048036038101906101e091906120c9565b610661565b005b61020160048036038101906101fc9190612109565b610778565b005b61021d60048036038101906102189190612109565b6107d8565b005b61023960048036038101906102349190611e70565b6107f8565b6040516102469190611ede565b60405180910390f35b6102696004803603810190610264919061215c565b6108a9565b6040516102769190612198565b60405180910390f35b610287610960565b005b610291610974565b60405161029e9190611ede565b60405180910390f35b6102af61099e565b6040516102bc9190611e18565b60405180910390f35b6102df60048036038101906102da91906121df565b610a30565b005b6102fb60048036038101906102f6919061215c565b610a46565b60405161030992919061221f565b60405180910390f35b61032c600480360381019061032791906122f0565b610af2565b005b6103486004803603810190610343919061215c565b610b54565b604051610356929190612373565b60405180910390f35b61037960048036038101906103749190611e70565b610c72565b6040516103869190611e18565b60405180910390f35b6103a960048036038101906103a491906123a3565b610d84565b6040516103b69190611d6d565b60405180910390f35b6103d960048036038101906103d491906123e3565b610e18565b6040516103e69190612198565b60405180910390f35b6104096004803603810190610404919061215c565b610e50565b005b60007f80ac58cd000000000000000000000000000000000000000000000000000000007bffffffffffffffffffffffffffffffffffffffffffffffffffffffff1916827bffffffffffffffffffffffffffffffffffffffffffffffffffffffff191614806104d657507f5b5e139f000000000000000000000000000000000000000000000000000000007bffffffffffffffffffffffffffffffffffffffffffffffffffffffff1916827bffffffffffffffffffffffffffffffffffffffffffffffffffffffff1916145b806104e657506104e582610ed3565b5b9050919050565b6060600080546104fc9061246e565b80601f01602080910402602001604051908101604052809291908181526020018280546105289061246e565b80156105755780601f1061054a57610100808354040283529160200191610575565b820191906000526020600020905b81548152906001019060200180831161055857829003601f168201915b5050505050905090565b600061058a82610f3d565b6004600083815260200190815260200160002060009054906101000a900473ffffffffffffffffffffffffffffffffffffffff169050919050565b81600960008573ffffffffffffffffffffffffffffffffffffffff1673ffffffffffffffffffffffffffffffffffffffff1681526020019081526020016000206001018190555080600960008573ffffffffffffffffffffffffffffffffffffffff1673ffffffffffffffffffffffffffffffffffffffff168152602001908152602001600020600001908161065b919061264b565b50505050565b600061066c826107f8565b90508073ffffffffffffffffffffffffffffffffffffffff168373ffffffffffffffffffffffffffffffffffffffff16036106dc576040517f08c379a00000000000000000000000000000000000000000000000000000000081526004016106d39061278f565b60405180910390fd5b8073ffffffffffffffffffffffffffffffffffffffff166106fb610f88565b73ffffffffffffffffffffffffffffffffffffffff16148061072a575061072981610724610f88565b610d84565b5b610769576040517f08c379a000000000000000000000000000000000000000000000000000000000815260040161076090612821565b60405180910390fd5b6107738383610f90565b505050565b610789610783610f88565b82611049565b6107c8576040517f08c379a00000000000000000000000000000000000000000000000000000000081526004016107bf906128b3565b60405180910390fd5b6107d38383836110de565b505050565b6107f383838360405180602001604052806000815250610af2565b505050565b6000806002600084815260200190815260200160002060009054906101000a900473ffffffffffffffffffffffffffffffffffffffff169050600073ffffffffffffffffffffffffffffffffffffffff168173ffffffffffffffffffffffffffffffffffffffff16036108a0576040517f08c379a00000000000000000000000000000000000000000000000000000000081526004016108979061291f565b60405180910390fd5b80915050919050565b60008073ffffffffffffffffffffffffffffffffffffffff168273ffffffffffffffffffffffffffffffffffffffff1603610919576040517f08c379a0000000000000000000000000000000000000000000000000000000008152600401610910906129b1565b60405180910390fd5b600360008373ffffffffffffffffffffffffffffffffffffffff1673ffffffffffffffffffffffffffffffffffffffff168152602001908152602001600020549050919050565b610968611344565b61097260006113c2565b565b6000600760009054906101000a900473ffffffffffffffffffffffffffffffffffffffff16905090565b6060600180546109ad9061246e565b80601f01602080910402602001604051908101604052809291908181526020018280546109d99061246e565b8015610a265780601f106109fb57610100808354040283529160200191610a26565b820191906000526020600020905b815481529060010190602001808311610a0957829003601f168201915b5050505050905090565b610a42610a3b610f88565b8383611488565b5050565b6009602052806000526040600020600091509050806000018054610a699061246e565b80601f0160208091040260200160405190810160405280929190818152602001828054610a959061246e565b8015610ae25780601f10610ab757610100808354040283529160200191610ae2565b820191906000526020600020905b815481529060010190602001808311610ac557829003601f168201915b5050505050908060010154905082565b610b03610afd610f88565b83611049565b610b42576040517f08c379a0000000000000000000000000000000000000000000000000000000008152600401610b39906128b3565b60405180910390fd5b610b4e848484846115f4565b50505050565b60006060600960008473ffffffffffffffffffffffffffffffffffffffff1673ffffffffffffffffffffffffffffffffffffffff16815260200190815260200160002060010154600960008573ffffffffffffffffffffffffffffffffffffffff1673ffffffffffffffffffffffffffffffffffffffff168152602001908152602001600020600001808054610be99061246e565b80601f0160208091040260200160405190810160405280929190818152602001828054610c159061246e565b8015610c625780601f10610c3757610100808354040283529160200191610c62565b820191906000526020600020905b815481529060010190602001808311610c4557829003601f168201915b5050505050905091509150915091565b6060610c7d82610f3d565b6000600660008481526020019081526020016000208054610c9d9061246e565b80601f0160208091040260200160405190810160405280929190818152602001828054610cc99061246e565b8015610d165780601f10610ceb57610100808354040283529160200191610d16565b820191906000526020600020905b815481529060010190602001808311610cf957829003601f168201915b505050505090506000610d27611650565b90506000815103610d3c578192505050610d7f565b600082511115610d71578082604051602001610d59929190612a0d565b60405160208183030381529060405292505050610d7f565b610d7a84611667565b925050505b919050565b6000600560008473ffffffffffffffffffffffffffffffffffffffff1673ffffffffffffffffffffffffffffffffffffffff16815260200190815260200160002060008373ffffffffffffffffffffffffffffffffffffffff1673ffffffffffffffffffffffffffffffffffffffff16815260200190815260200160002060009054906101000a900460ff16905092915050565b6000610e2460086116cf565b6000610e3060086116e5565b9050610e3c84826116f3565b610e4681846118cc565b8091505092915050565b610e58611344565b600073ffffffffffffffffffffffffffffffffffffffff168173ffffffffffffffffffffffffffffffffffffffff1603610ec7576040517f08c379a0000000000000000000000000000000000000000000000000000000008152600401610ebe90612aa3565b60405180910390fd5b610ed0816113c2565b50565b60007f01ffc9a7000000000000000000000000000000000000000000000000000000007bffffffffffffffffffffffffffffffffffffffffffffffffffffffff1916827bffffffffffffffffffffffffffffffffffffffffffffffffffffffff1916149050919050565b610f4681611939565b610f85576040517f08c379a0000000000000000000000000000000000000000000000000000000008152600401610f7c9061291f565b60405180910390fd5b50565b600033905090565b816004600083815260200190815260200160002060006101000a81548173ffffffffffffffffffffffffffffffffffffffff021916908373ffffffffffffffffffffffffffffffffffffffff160217905550808273ffffffffffffffffffffffffffffffffffffffff16611003836107f8565b73ffffffffffffffffffffffffffffffffffffffff167f8c5be1e5ebec7d5bd14f71427d1e84f3dd0314c0f7b2291e5b200ac8c7c3b92560405160405180910390a45050565b600080611055836107f8565b90508073ffffffffffffffffffffffffffffffffffffffff168473ffffffffffffffffffffffffffffffffffffffff16148061109757506110968185610d84565b5b806110d557508373ffffffffffffffffffffffffffffffffffffffff166110bd8461057f565b73ffffffffffffffffffffffffffffffffffffffff16145b91505092915050565b8273ffffffffffffffffffffffffffffffffffffffff166110fe826107f8565b73ffffffffffffffffffffffffffffffffffffffff1614611154576040517f08c379a000000000000000000000000000000000000000000000000000000000815260040161114b90612b35565b60405180910390fd5b600073ffffffffffffffffffffffffffffffffffffffff168273ffffffffffffffffffffffffffffffffffffffff16036111c3576040517f08c379a00000000000000000000000000000000000000000000000000000000081526004016111ba90612bc7565b60405180910390fd5b6111ce8383836119a5565b6111d9600082610f90565b6001600360008573ffffffffffffffffffffffffffffffffffffffff1673ffffffffffffffffffffffffffffffffffffffff16815260200190815260200160002060008282546112299190612c16565b925050819055506001600360008473ffffffffffffffffffffffffffffffffffffffff1673ffffffffffffffffffffffffffffffffffffffff16815260200190815260200160002060008282546112809190612c4a565b92505081905550816002600083815260200190815260200160002060006101000a81548173ffffffffffffffffffffffffffffffffffffffff021916908373ffffffffffffffffffffffffffffffffffffffff160217905550808273ffffffffffffffffffffffffffffffffffffffff168473ffffffffffffffffffffffffffffffffffffffff167fddf252ad1be2c89b69c2b068fc378daa952ba7f163c4a11628f55a4df523b3ef60405160405180910390a461133f8383836119aa565b505050565b61134c610f88565b73ffffffffffffffffffffffffffffffffffffffff1661136a610974565b73ffffffffffffffffffffffffffffffffffffffff16146113c0576040517f08c379a00000000000000000000000000000000000000000000000000000000081526004016113b790612cca565b60405180910390fd5b565b6000600760009054906101000a900473ffffffffffffffffffffffffffffffffffffffff16905081600760006101000a81548173ffffffffffffffffffffffffffffffffffffffff021916908373ffffffffffffffffffffffffffffffffffffffff1602179055508173ffffffffffffffffffffffffffffffffffffffff168173ffffffffffffffffffffffffffffffffffffffff167f8be0079c531659141344cd1fd0a4f28419497f9722a3daafe3b4186f6b6457e060405160405180910390a35050565b8173ffffffffffffffffffffffffffffffffffffffff168373ffffffffffffffffffffffffffffffffffffffff16036114f6576040517f08c379a00000000000000000000000000000000000000000000000000000000081526004016114ed90612d36565b60405180910390fd5b80600560008573ffffffffffffffffffffffffffffffffffffffff1673ffffffffffffffffffffffffffffffffffffffff16815260200190815260200160002060008473ffffffffffffffffffffffffffffffffffffffff1673ffffffffffffffffffffffffffffffffffffffff16815260200190815260200160002060006101000a81548160ff0219169083151502179055508173ffffffffffffffffffffffffffffffffffffffff168373ffffffffffffffffffffffffffffffffffffffff167f17307eab39ab6107e8899845ad3d59bd9653f200f220920489ca2b5937696c31836040516115e79190611d6d565b60405180910390a3505050565b6115ff8484846110de565b61160b848484846119af565b61164a576040517f08c379a000000000000000000000000000000000000000000000000000000000815260040161164190612dc8565b60405180910390fd5b50505050565b606060405180602001604052806000815250905090565b606061167282610f3d565b600061167c611650565b9050600081511161169c57604051806020016040528060008152506116c7565b806116a684611b36565b6040516020016116b7929190612a0d565b6040516020818303038152906040525b915050919050565b6001816000016000828254019250508190555050565b600081600001549050919050565b600073ffffffffffffffffffffffffffffffffffffffff168273ffffffffffffffffffffffffffffffffffffffff1603611762576040517f08c379a000000000000000000000000000000000000000000000000000000000815260040161175990612e34565b60405180910390fd5b61176b81611939565b156117ab576040517f08c379a00000000000000000000000000000000000000000000000000000000081526004016117a290612ea0565b60405180910390fd5b6117b7600083836119a5565b6001600360008473ffffffffffffffffffffffffffffffffffffffff1673ffffffffffffffffffffffffffffffffffffffff16815260200190815260200160002060008282546118079190612c4a565b92505081905550816002600083815260200190815260200160002060006101000a81548173ffffffffffffffffffffffffffffffffffffffff021916908373ffffffffffffffffffffffffffffffffffffffff160217905550808273ffffffffffffffffffffffffffffffffffffffff16600073ffffffffffffffffffffffffffffffffffffffff167fddf252ad1be2c89b69c2b068fc378daa952ba7f163c4a11628f55a4df523b3ef60405160405180910390a46118c8600083836119aa565b5050565b6118d582611939565b611914576040517f08c379a000000000000000000000000000000000000000000000000000000000815260040161190b90612f32565b60405180910390fd5b80600660008481526020019081526020016000209081611934919061264b565b505050565b60008073ffffffffffffffffffffffffffffffffffffffff166002600084815260200190815260200160002060009054906101000a900473ffffffffffffffffffffffffffffffffffffffff1673ffffffffffffffffffffffffffffffffffffffff1614159050919050565b505050565b505050565b60006119d08473ffffffffffffffffffffffffffffffffffffffff16611c96565b15611b29578373ffffffffffffffffffffffffffffffffffffffff1663150b7a026119f9610f88565b8786866040518563ffffffff1660e01b8152600401611a1b9493929190612fa7565b6020604051808303816000875af1925050508015611a5757506040513d601f19601f82011682018060405250810190611a549190613008565b60015b611ad9573d8060008114611a87576040519150601f19603f3d011682016040523d82523d6000602084013e611a8c565b606091505b506000815103611ad1576040517f08c379a0000000000000000000000000000000000000000000000000000000008152600401611ac890612dc8565b60405180910390fd5b805181602001fd5b63150b7a0260e01b7bffffffffffffffffffffffffffffffffffffffffffffffffffffffff1916817bffffffffffffffffffffffffffffffffffffffffffffffffffffffff191614915050611b2e565b600190505b949350505050565b606060008203611b7d576040518060400160405280600181526020017f30000000000000000000000000000000000000000000000000000000000000008152509050611c91565b600082905060005b60008214611baf578080611b9890613035565b915050600a82611ba891906130ac565b9150611b85565b60008167ffffffffffffffff811115611bcb57611bca611f2f565b5b6040519080825280601f01601f191660200182016040528015611bfd5781602001600182028036833780820191505090505b5090505b60008514611c8a57600182611c169190612c16565b9150600a85611c2591906130dd565b6030611c319190612c4a565b60f81b818381518110611c4757611c4661310e565b5b60200101907effffffffffffffffffffffffffffffffffffffffffffffffffffffffffffff1916908160001a905350600a85611c8391906130ac565b9450611c01565b8093505050505b919050565b6000808273ffffffffffffffffffffffffffffffffffffffff163b119050919050565b6000604051905090565b600080fd5b600080fd5b60007fffffffff0000000000000000000000000000000000000000000000000000000082169050919050565b611d0281611ccd565b8114611d0d57600080fd5b50565b600081359050611d1f81611cf9565b92915050565b600060208284031215611d3b57611d3a611cc3565b5b6000611d4984828501611d10565b91505092915050565b60008115159050919050565b611d6781611d52565b82525050565b6000602082019050611d826000830184611d5e565b92915050565b600081519050919050565b600082825260208201905092915050565b60005b83811015611dc2578082015181840152602081019050611da7565b60008484015250505050565b6000601f19601f8301169050919050565b6000611dea82611d88565b611df48185611d93565b9350611e04818560208601611da4565b611e0d81611dce565b840191505092915050565b60006020820190508181036000830152611e328184611ddf565b905092915050565b6000819050919050565b611e4d81611e3a565b8114611e5857600080fd5b50565b600081359050611e6a81611e44565b92915050565b600060208284031215611e8657611e85611cc3565b5b6000611e9484828501611e5b565b91505092915050565b600073ffffffffffffffffffffffffffffffffffffffff82169050919050565b6000611ec882611e9d565b9050919050565b611ed881611ebd565b82525050565b6000602082019050611ef36000830184611ecf565b92915050565b611f0281611ebd565b8114611f0d57600080fd5b50565b600081359050611f1f81611ef9565b92915050565b600080fd5b600080fd5b7f4e487b7100000000000000000000000000000000000000000000000000000000600052604160045260246000fd5b611f6782611dce565b810181811067ffffffffffffffff82111715611f8657611f85611f2f565b5b80604052505050565b6000611f99611cb9565b9050611fa58282611f5e565b919050565b600067ffffffffffffffff821115611fc557611fc4611f2f565b5b611fce82611dce565b9050602081019050919050565b82818337600083830152505050565b6000611ffd611ff884611faa565b611f8f565b90508281526020810184848401111561201957612018611f2a565b5b612024848285611fdb565b509392505050565b600082601f83011261204157612040611f25565b5b8135612051848260208601611fea565b91505092915050565b60008060006060848603121561207357612072611cc3565b5b600061208186828701611f10565b935050602061209286828701611e5b565b925050604084013567ffffffffffffffff8111156120b3576120b2611cc8565b5b6120bf8682870161202c565b9150509250925092565b600080604083850312156120e0576120df611cc3565b5b60006120ee85828601611f10565b92505060206120ff85828601611e5b565b9150509250929050565b60008060006060848603121561212257612121611cc3565b5b600061213086828701611f10565b935050602061214186828701611f10565b925050604061215286828701611e5b565b9150509250925092565b60006020828403121561217257612171611cc3565b5b600061218084828501611f10565b91505092915050565b61219281611e3a565b82525050565b60006020820190506121ad6000830184612189565b92915050565b6121bc81611d52565b81146121c757600080fd5b50565b6000813590506121d9816121b3565b92915050565b600080604083850312156121f6576121f5611cc3565b5b600061220485828601611f10565b9250506020612215858286016121ca565b9150509250929050565b600060408201905081810360008301526122398185611ddf565b90506122486020830184612189565b9392505050565b600067ffffffffffffffff82111561226a57612269611f2f565b5b61227382611dce565b9050602081019050919050565b600061229361228e8461224f565b611f8f565b9050828152602081018484840111156122af576122ae611f2a565b5b6122ba848285611fdb565b509392505050565b600082601f8301126122d7576122d6611f25565b5b81356122e7848260208601612280565b91505092915050565b6000806000806080858703121561230a57612309611cc3565b5b600061231887828801611f10565b945050602061232987828801611f10565b935050604061233a87828801611e5b565b925050606085013567ffffffffffffffff81111561235b5761235a611cc8565b5b612367878288016122c2565b91505092959194509250565b60006040820190506123886000830185612189565b818103602083015261239a8184611ddf565b90509392505050565b600080604083850312156123ba576123b9611cc3565b5b60006123c885828601611f10565b92505060206123d985828601611f10565b9150509250929050565b600080604083850312156123fa576123f9611cc3565b5b600061240885828601611f10565b925050602083013567ffffffffffffffff81111561242957612428611cc8565b5b6124358582860161202c565b9150509250929050565b7f4e487b7100000000000000000000000000000000000000000000000000000000600052602260045260246000fd5b6000600282049050600182168061248657607f821691505b6020821081036124995761249861243f565b5b50919050565b60008190508160005260206000209050919050565b60006020601f8301049050919050565b600082821b905092915050565b6000600883026125017fffffffffffffffffffffffffffffffffffffffffffffffffffffffffffffffff826124c4565b61250b86836124c4565b95508019841693508086168417925050509392505050565b6000819050919050565b600061254861254361253e84611e3a565b612523565b611e3a565b9050919050565b6000819050919050565b6125628361252d565b61257661256e8261254f565b8484546124d1565b825550505050565b600090565b61258b61257e565b612596818484612559565b505050565b5b818110156125ba576125af600082612583565b60018101905061259c565b5050565b601f8211156125ff576125d08161249f565b6125d9846124b4565b810160208510156125e8578190505b6125fc6125f4856124b4565b83018261259b565b50505b505050565b600082821c905092915050565b600061262260001984600802612604565b1980831691505092915050565b600061263b8383612611565b9150826002028217905092915050565b61265482611d88565b67ffffffffffffffff81111561266d5761266c611f2f565b5b612677825461246e565b6126828282856125be565b600060209050601f8311600181146126b557600084156126a3578287015190505b6126ad858261262f565b865550612715565b601f1984166126c38661249f565b60005b828110156126eb578489015182556001820191506020850194506020810190506126c6565b868310156127085784890151612704601f891682612611565b8355505b6001600288020188555050505b505050505050565b7f4552433732313a20617070726f76616c20746f2063757272656e74206f776e6560008201527f7200000000000000000000000000000000000000000000000000000000000000602082015250565b6000612779602183611d93565b91506127848261271d565b604082019050919050565b600060208201905081810360008301526127a88161276c565b9050919050565b7f4552433732313a20617070726f76652063616c6c6572206973206e6f7420746f60008201527f6b656e206f776e6572206e6f7220617070726f76656420666f7220616c6c0000602082015250565b600061280b603e83611d93565b9150612816826127af565b604082019050919050565b6000602082019050818103600083015261283a816127fe565b9050919050565b7f4552433732313a2063616c6c6572206973206e6f7420746f6b656e206f776e6560008201527f72206e6f7220617070726f766564000000000000000000000000000000000000602082015250565b600061289d602e83611d93565b91506128a882612841565b604082019050919050565b600060208201905081810360008301526128cc81612890565b9050919050565b7f4552433732313a20696e76616c696420746f6b656e2049440000000000000000600082015250565b6000612909601883611d93565b9150612914826128d3565b602082019050919050565b60006020820190508181036000830152612938816128fc565b9050919050565b7f4552433732313a2061646472657373207a65726f206973206e6f74206120766160008201527f6c6964206f776e65720000000000000000000000000000000000000000000000602082015250565b600061299b602983611d93565b91506129a68261293f565b604082019050919050565b600060208201905081810360008301526129ca8161298e565b9050919050565b600081905092915050565b60006129e782611d88565b6129f181856129d1565b9350612a01818560208601611da4565b80840191505092915050565b6000612a1982856129dc565b9150612a2582846129dc565b91508190509392505050565b7f4f776e61626c653a206e6577206f776e657220697320746865207a65726f206160008201527f6464726573730000000000000000000000000000000000000000000000000000602082015250565b6000612a8d602683611d93565b9150612a9882612a31565b604082019050919050565b60006020820190508181036000830152612abc81612a80565b9050919050565b7f4552433732313a207472616e736665722066726f6d20696e636f72726563742060008201527f6f776e6572000000000000000000000000000000000000000000000000000000602082015250565b6000612b1f602583611d93565b9150612b2a82612ac3565b604082019050919050565b60006020820190508181036000830152612b4e81612b12565b9050919050565b7f4552433732313a207472616e7366657220746f20746865207a65726f2061646460008201527f7265737300000000000000000000000000000000000000000000000000000000602082015250565b6000612bb1602483611d93565b9150612bbc82612b55565b604082019050919050565b60006020820190508181036000830152612be081612ba4565b9050919050565b7f4e487b7100000000000000000000000000000000000000000000000000000000600052601160045260246000fd5b6000612c2182611e3a565b9150612c2c83611e3a565b9250828203905081811115612c4457612c43612be7565b5b92915050565b6000612c5582611e3a565b9150612c6083611e3a565b9250828201905080821115612c7857612c77612be7565b5b92915050565b7f4f776e61626c653a2063616c6c6572206973206e6f7420746865206f776e6572600082015250565b6000612cb4602083611d93565b9150612cbf82612c7e565b602082019050919050565b60006020820190508181036000830152612ce381612ca7565b9050919050565b7f4552433732313a20617070726f766520746f2063616c6c657200000000000000600082015250565b6000612d20601983611d93565b9150612d2b82612cea565b602082019050919050565b60006020820190508181036000830152612d4f81612d13565b9050919050565b7f4552433732313a207472616e7366657220746f206e6f6e20455243373231526560008201527f63656976657220696d706c656d656e7465720000000000000000000000000000602082015250565b6000612db2603283611d93565b9150612dbd82612d56565b604082019050919050565b60006020820190508181036000830152612de181612da5565b9050919050565b7f4552433732313a206d696e7420746f20746865207a65726f2061646472657373600082015250565b6000612e1e602083611d93565b9150612e2982612de8565b602082019050919050565b60006020820190508181036000830152612e4d81612e11565b9050919050565b7f4552433732313a20746f6b656e20616c7265616479206d696e74656400000000600082015250565b6000612e8a601c83611d93565b9150612e9582612e54565b602082019050919050565b60006020820190508181036000830152612eb981612e7d565b9050919050565b7f45524337323155524953746f726167653a2055524920736574206f66206e6f6e60008201527f6578697374656e7420746f6b656e000000000000000000000000000000000000602082015250565b6000612f1c602e83611d93565b9150612f2782612ec0565b604082019050919050565b60006020820190508181036000830152612f4b81612f0f565b9050919050565b600081519050919050565b600082825260208201905092915050565b6000612f7982612f52565b612f838185612f5d565b9350612f93818560208601611da4565b612f9c81611dce565b840191505092915050565b6000608082019050612fbc6000830187611ecf565b612fc96020830186611ecf565b612fd66040830185612189565b8181036060830152612fe88184612f6e565b905095945050505050565b60008151905061300281611cf9565b92915050565b60006020828403121561301e5761301d611cc3565b5b600061302c84828501612ff3565b91505092915050565b600061304082611e3a565b91507fffffffffffffffffffffffffffffffffffffffffffffffffffffffffffffffff820361307257613071612be7565b5b600182019050919050565b7f4e487b7100000000000000000000000000000000000000000000000000000000600052601260045260246000fd5b60006130b782611e3a565b91506130c283611e3a565b9250826130d2576130d161307d565b5b828204905092915050565b60006130e882611e3a565b91506130f383611e3a565b9250826131035761310261307d565b5b828206905092915050565b7f4e487b7100000000000000000000000000000000000000000000000000000000600052603260045260246000fdfea26469706673582212204564895c46a110ded874082e4fdf67940b9a51695d32bf038163151ae1061f1164736f6c63430008110033",
  "immutableReferences": {},
  "source": "// SPDX-License-Identifier: MIT\npragma solidity >=0.8.0 <0.9.0;\n\nimport \"@openzeppelin/contracts/token/ERC721/ERC721.sol\";\nimport \"@openzeppelin/contracts/utils/Counters.sol\";\nimport \"@openzeppelin/contracts/access/Ownable.sol\";\nimport \"@openzeppelin/contracts/token/ERC721/extensions/ERC721URIStorage.sol\";\n\ncontract MyNFT is ERC721URIStorage, Ownable {\n    using Counters for Counters.Counter;\n\n    Counters.Counter private _tokenIds;\n\n    struct will \n    {\n        string text;\n        uint256 propertyID;\n    }\n\n    mapping (address => will) public wills;\n\n    constructor() ERC721(\"Land Deeds\", \"LDHG\") {}\n\n    function mintNFT(address recipient, string memory tokenURI)\n        public\n        returns (uint256)\n    {\n        _tokenIds.increment();\n\n        uint256 newItemId = _tokenIds.current();\n        _mint(recipient, newItemId);\n        _setTokenURI(newItemId, tokenURI);\n        return newItemId;\n    }\n\n    function createWill(address creater,uint256 id,string memory text) public \n    { \n        wills[creater].propertyID = id;\n        wills[creater].text = text;\n\n    }\n\n    function viewWill(address creater) view public returns (uint256, string memory ) \n    {\n        return (wills[creater].propertyID,wills[creater].text);\n    }\n}\n\n\n",
  "sourcePath": "/Users/sahilpal/Downloads/VII SEM/Major Project/land-deed/contracts/MyNFT.sol",
  "compiler": {
    "name": "solc",
    "version": "0.8.17+commit.8df45f5f.Emscripten.clang"
  },
  "schemaVersion": "3.4.10",
  "updatedAt": "2022-11-03T19:31:37.950Z",
  "networkType": "ethereum",
  "devdoc": {
    "kind": "dev",
    "methods": {
      "approve(address,uint256)": {
        "details": "See {IERC721-approve}."
      },
      "balanceOf(address)": {
        "details": "See {IERC721-balanceOf}."
      },
      "getApproved(uint256)": {
        "details": "See {IERC721-getApproved}."
      },
      "isApprovedForAll(address,address)": {
        "details": "See {IERC721-isApprovedForAll}."
      },
      "name()": {
        "details": "See {IERC721Metadata-name}."
      },
      "owner()": {
        "details": "Returns the address of the current owner."
      },
      "ownerOf(uint256)": {
        "details": "See {IERC721-ownerOf}."
      },
      "renounceOwnership()": {
        "details": "Leaves the contract without owner. It will not be possible to call `onlyOwner` functions anymore. Can only be called by the current owner. NOTE: Renouncing ownership will leave the contract without an owner, thereby removing any functionality that is only available to the owner."
      },
      "safeTransferFrom(address,address,uint256)": {
        "details": "See {IERC721-safeTransferFrom}."
      },
      "safeTransferFrom(address,address,uint256,bytes)": {
        "details": "See {IERC721-safeTransferFrom}."
      },
      "setApprovalForAll(address,bool)": {
        "details": "See {IERC721-setApprovalForAll}."
      },
      "supportsInterface(bytes4)": {
        "details": "See {IERC165-supportsInterface}."
      },
      "symbol()": {
        "details": "See {IERC721Metadata-symbol}."
      },
      "tokenURI(uint256)": {
        "details": "See {IERC721Metadata-tokenURI}."
      },
      "transferFrom(address,address,uint256)": {
        "details": "See {IERC721-transferFrom}."
      },
      "transferOwnership(address)": {
        "details": "Transfers ownership of the contract to a new account (`newOwner`). Can only be called by the current owner."
      }
    },
    "version": 1
  },
  "userdoc": {
    "kind": "user",
    "methods": {},
    "version": 1
  }
}